:100000000C9408160C9430160C9430160C94301680
:100010000C9430160C9430160C9430160C94301648
:100020000C9430160C9430160C94901B0C94FF1BFF
:100030000C9430160C9430160C9430160C94301628
:100040000C9430160C9430160C9430160C94301618
:100050000C9430160C9430160C9430160C94311EFF
:100060000C9430160C9430160C9430160C943016F8
:100070000C9430160C9430160C9430160C943016E8
:100080000C9430160C9430160C9430160C943016D8
:100090000C9430160C9430160C9430160C943016C8
:1000A0000C9430160C9430160C943016000000009E
:1000B000003E5B4F5B3E3E6B4F6B3E1C3E7C3E1CEE
:1000C000183C7E3C181C577D571C1C5E7F5E1C0034
:1000D000183C1800FFE7C3E7FF0018241800FFE7EB
:1000E000DBE7FF30483A060E2629792926407F05AE
:1000F0000507407F05253F5A3CE73C5A7F3E1C1CC4
:1001000008081C1C3E7F14227F22145F5F005F5F83
:1001100006097F017F006689956A6060606060946F
:10012000A2FFA29408047E040810207E2010080874
:100130002A1C08081C2A08081E101010100C1E0C7F
:100140001E0C30383E3830060E3E0E060000000011
:100150000000005F00000007000700147F147F14F8
:10016000242A7F2A1223130864623649562050003D
:1001700008070300001C2241000041221C002A1C29
:100180007F1C2A08083E0808008070300008080814
:100190000808000060600020100804023E51494534
:1001A0003E00427F400072494949462141494D3352
:1001B0001814127F1027454545393C4A49493141B9
:1001C000211109073649494936464949291E000087
:1001D00014000000403400000008142241141414DC
:1001E0001414004122140802015909063E415D59C8
:1001F0004E7C1211127C7F494949363E41414122D1
:100200007F4141413E7F494949417F090909013EFA
:10021000414151737F0808087F00417F4100204021
:10022000413F017F081422417F404040407F021C33
:10023000027F7F0408107F3E4141413E7F0909094A
:10024000063E4151215E7F09192946264949493216
:1002500003017F01033F4040403F1F2040201F3FDC
:100260004038403F63140814630304780403615961
:10027000494D43007F4141410204081020004141A3
:10028000417F04020102044040404040000307084F
:100290000020545478407F2844443838444444284B
:1002A000384444287F385454541800087E090218F2
:1002B000A4A49C787F0804047800447D400020407A
:1002C000403D007F1028440000417F40007C0478BE
:1002D00004787C080404783844444438FC18242406
:1002E0001818242418FC7C08040408485454542486
:1002F00004043F44243C4040207C1C2040201C3C03
:100300004030403C44281028444C9090907C4464F9
:10031000544C44000836410000007700000041368C
:10032000080002010204023C2623263C1EA1A16112
:10033000123A4040207A3854545559215555794144
:100340002154547841215554784020545579400C1B
:100350001E527212395555555939545454593955FC
:100360005454580000457C410002457D420001453F
:100370007C40F0292429F0F0282528F07C545545AC
:10038000002054547C547C0A097F4932494949323F
:100390003248484832324A4848303A4141217A3A54
:1003A00042402078009DA0A07D39444444393D401E
:1003B00040403D3C24FF2424487E4943662B2FFCCB
:1003C0002F2BFF0929F620C0887E09032054547979
:1003D000410000447D413048484A32384040227A4A
:1003E000007A0A0A727D0D19317D2629292F2826C7
:1003F0002929292630484D402038080808080808CF
:100400000808382F10C8ACBA2F102834FA00007B27
:10041000000008142A142222142A1408950022002D
:1004200095AA005500AAAA55AA55AA000000FF00E7
:10043000101010FF00141414FF001010FF00FF1024
:1004400010F010F0141414FC001414F700FF000056
:10045000FF00FF1414F404FC141417101F10101FD5
:10046000101F1414141F00101010F0000000001FC3
:10047000101010101F10101010F010000000FF10CE
:100480001010101010101010FF10000000FF1400CA
:1004900000FF00FF00001F10170000FC04F41414FC
:1004A0001710171414F404F40000FF00F7141414C8
:1004B00014141414F700F7141414171410101F1048
:1004C0001F141414F4141010F010F000001F101F6B
:1004D0000000001F14000000FC140000F010F010D9
:1004E00010FF10FF141414FF141010101F00000050
:1004F00000F010FFFFFFFFFFF0F0F0F0F0FFFFFF54
:100500000000000000FFFF0F0F0F0F0F38444438AA
:10051000447C2A2A3E147E02020606027E027E02E5
:1005200063554941633844443C04407E201E200604
:10053000027E020299A5E7A5991C2A492A1C4C7241
:1005400001724C304A4D4D303048784830BC625AC8
:10055000463D3E494949007E0101017E2A2A2A2A58
:100560002A44445F444440514A444040444A514034
:100570000000FF0103E080FF000008086B6B0836F5
:1005800012362436060F090F060000181800000066
:100590001010003040FF0101001F01011E00191D55
:1005A0001712003C3C3C3C0000000000F0F89C8E20
:1005B0008783878E9CF8F00000FEFF03030303038C
:1005C000070EFCF80000FEFF0303030303070EFC05
:1005D000F80000FFFF00000000000000FFFF000027
:1005E000FEFF8383838383C7EE7C380000F8FC0E14
:1005F00007030303070EFCF800003F7FE0C0808084
:10060000C0E07F3FFFFF01010101010101FFFF0089
:1006100000FFFF0C0C0C0C1C3E77E3C100007FFFB9
:10062000C0C0C0C0C0E0703F1F00001F3F70E0C0EE
:10063000C0C0E0703F1F00007FFFC1C1C1C1C1E366
:10064000773E1C00001F3F70E0C0C0C0E0703F1F3D
:10065000000000000001FFFF01000000D5F08D1434
:10066000A1C881CFD9F1AF20000000000000000038
:10067000000000000000000000000000808080807A
:10068000000000000000000000000000000000006A
:10069000000000000000000000000000000000005A
:1006A000000000000000000000000000000000004A
:1006B0000080800000F0F00000C0C00000000000DA
:1006C000000000000000000000000000000000002A
:1006D000000000000000000000000000000000001A
:1006E000000000000000000000000000000000000A
:1006F00000000000000000000000F0FF3F030307BF
:10070000070000C0C0C0007070303030F0F0000052
:1007100000FCFC3C1CFCF8C00000F0FC7C8C8CDC79
:10072000FCF80000E0E0C0F07838383030300000ED
:100730000087C7E0E06060E0C0C7C7C0C00000003D
:100740000000008080F8F8988000000000000000A1
:10075000F0F8787878000000000000000000000049
:100760000000000000000000000000000000000089
:10077000000000000000000000000F1F3838303873
:100780003818000F3F3830707070303C3F0F000059
:10079000001F1F00001C1F07000003E3F33333F1A9
:1007A000FF3F000003FFFF03000000000000000007
:1007B000003F7FF1E0C0C0C0E0F97F1F1F1E383846
:1007C00030000001013F7F716160606060000000E7
:1007D000333333373F3E3C00000080E0E000000050
:1007E0000000000000000000000000000000000009
:1007F00000000000000000000000000000000000F9
:10080000000000000000000000000000000000C028
:10081000C000F0F81800E0E0000000070707070339
:1008200001000000000000000000000000000000C7
:1008300000000000000000000000000000000000B8
:1008400000000000000000000000000000000000A8
:100850000000000000000000000001010100000095
:1008600000C0C00000000000000000000000000008
:100870000000000000F8F800000000F8F800000098
:100880000F0F0000F0F0F070783800000000C0E3B7
:10089000F330303030F0F1E1F0F080000000000083
:1008A00000000000E0F8FC1C0C3C3C0000000000D4
:1008B000E0F8BCDCECFC7C000000FCFC7C1CFCFCDC
:1008C00000000000F3F300000000C0F878381818AA
:1008D00098F8F800000080F8F8F8E0FC7C0C0000C4
:1008E000007F7F000000000000000000000000000A
:1008F00000000000000F0F1C1C181C0F1F1C18000C
:10090000000000001F1F000000000000000003079F
:100910000E0E0C0E0E07030101030303030000007B
:10092000000000007173677F7E380000000303033E
:100930000F0F1F1D1D1C0C0000001F1F0000030FC8
:100940000E0000000F0F0E000000070F0E0C0E0F20
:1009500007030000001C1F0F000000000000000043
:10096000181818000000000000000000000000003F
:100970000000000000000000000000000000000077
:100980000000000000000000000000000000000067
:100990000000000000000000000000000000000057
:1009A0000000000000000000000000000000000047
:1009B0000000000000000000000000000000000037
:1009C0000000000000000000000000000000000027
:1009D0000000000000000000000000000000000017
:1009E0000000000000000000000000000000000007
:1009F00000000000000000000000000000000000F7
:100A000000000000000000000000000000000000E6
:100A100000000000000000000000000000000000D6
:100A200000000000000000000000000000000000C6
:100A300000000000000000000000000000000000B6
:100A400000000000000000000000000000000000A6
:100A50000000000000000000000000000000000096
:100A60000000000000000000000000000000000086
:100A700000000000000000000080C0C0C0C0800076
:100A80000000000000000000000000000000000066
:100A90000000000000000000000000000000000056
:100AA000000000000000000000000000000000C086
:100AB000C0000078780000E0E000000000000000C6
:100AC0000000000000000000000000000000000026
:100AD0000000000000000000000000000000000016
:100AE0000000000000000000000000000000000006
:100AF0000000000000000000F8FF1F0101030300D8
:100B000000E0E060003838181818F8F8000000FE1F
:100B1000FE1E0E7EFCE00000F8FEBEC6C6EEFEFC29
:100B20000000F0F0E0F83C1C1C181818000000C38E
:100B3000E3F07030307060E3E3E0E00000000000BC
:100B400000C0C0FCFCCCC000000000000000F8FCAD
:100B5000BCBCBC0000000000000000000000000061
:100B60000000000000000000000000000000000085
:100B70000000000000000000070F1C1C181C1C0CCB
:100B800000071F1C18383838181E1F070000000FF8
:100B90000F00000E0F03000001F1F99999F8FF1FF3
:100BA0000000017F7F010000000000000000001F26
:100BB0003F7870606060707C3F0F0F0F1C1C180046
:100BC0000000001F3F38303030303000000019196D
:100BD000191B1F1F1E000000C0F0F00000000000E5
:100BE0000000000000000000000000000000000005
:100BF00000000000000000000000000000000000F5
:100C0000000000000000000000000000000000C024
:100C1000C000F0F81800E0E0000303030301000047
:100C200000000000000000000000000000000000C4
:100C3000000000000000000000C0C0000000000034
:100C40000000000000E0E0000000000000E0E00024
:100C50000000000000000000000000000000000094
:100C60000000000000000000000000000000000084
:100C70000000000000F8F800000000F8F800000094
:100C80000F0F0000F0F0F070783800000000C0E3B3
:100C9000F330303030F0F1E1F0F08000000000007F
:100CA0000000000000000000FCFC7C0C1CFCF83C78
:100CB0001C3CFCF00000000000FCFC000000F8F808
:100CC00018181838F8FFFF0000000000007F7F00B0
:100CD0000000000000000000000000000000000014
:100CE0000000000000000000000000000000000004
:100CF00000000000000F0F1C1C181C0F1F1C180008
:100D0000000000001F1F000000000000000003079B
:100D10000E0E0C0E0E070301010303030300000077
:100D200000000000000000000F0F0000000303009F
:100D3000000003030300000000030300000003079A
:100D4000070707000303010000000000001C1C004F
:100D50000000000000000000000000000000000093
:100D60000000000000000000000000000000000083
:100D70000000000000000000000000000000000073
:100D80000000000000000000000000000000000063
:100D90000000000000000000000000000000000053
:100DA0000000000000000000000000000000000043
:100DB0000000000000000000000000000000000033
:100DC0000000000000000000000000000000000023
:100DD0000000000000000000000000000000000013
:100DE0000000000000000000000000000000000003
:100DF00000000000000000000000000000000000F3
:100E000000000000000000000000000000000000E2
:100E100000000000000000000000000000000000D2
:100E200000000000000000000000000000000000C2
:100E300000000000000000000000000000000000B2
:100E400000000000000000000000000000000000A2
:100E50000000000000000000000000000000000092
:100E60000000000000000000000000000000000082
:100E70000000000000000000000000000000808072
:100E80008080000000000000000000000000000062
:100E90000000000000000000000000000000000052
:100EA0000000000000000000000000000000000042
:100EB00000000080800000F0F00000C0C0000000D2
:100EC0000000000000000000000000000000000022
:100ED0000000000000000000000000000000000012
:100EE0000000000000000000000000000000000002
:100EF000000000000000000000000000F0FF3F03C1
:100F00000307070000C0C0C0007070303030F0F040
:100F1000000000FCFC3C1CFCF8C00000F0FC7C8CD9
:100F20008CDCFCF80000E0E0C0F07838383030307D
:100F300000000087C7E0E06060E0C0C7C7C0C00035
:100F400000000000008080F8F89880000000000099
:100F50000000F0F878787800000000000000000041
:100F60000000000000000000000000000000000081
:100F70000000000000000000000000000F1F3838D3
:100F800030383818000F3F3830707070303C3F0FE9
:100F90000000001F1F00001C1F07000003E3F333C5
:100FA00033F1FF3F000003FFFF03000000000000DB
:100FB0000000003F7FF1E0C0C0C0E0F97F1F1F1EAE
:100FC000383830000001013F7F716160606060006F
:100FD0000000333333373F3E3C00000080E0E00048
:100FE0000000000000000000000000000000000001
:100FF00000000000000000000000000000000000F1
:10100000000000000000000000000000000000C020
:10101000C000F0F81800E0E000000000000707073B
:1010200007030100000000C0C00000000000000035
:1010300000000000000000000000000000000000B0
:1010400000000000000000000000000000000000A0
:101050000000000000000000000000000101E1E0CD
:101060000000000000000000000000000000000080
:101070000000000000F8F800000000F8F800000090
:101080000F0F0000F0F0F070783800000000C0E3AF
:10109000F330303030F0F1E1F0F08000000000007B
:1010A00000000000000000FCFC0000F8F8800000D8
:1010B00000F8F8F800000000F8F8383838F8F000C8
:1010C0000000E6E60000F0FCBC0C00181838F8F050
:1010D000000000F8FC7C70787E1E000000003F3F9E
:1010E0000000000000000000000000000000000000
:1010F00000000000000F0F1C1C181C0F1F1C180004
:10110000000000001F1F0000000000000000030797
:101110000E0E0C0E0E070301010303030300000073
:10112000000000E0E0E0783F1F000001070F0E0E16
:101130000F07070F0C0000000F0F0000000F0F003B
:10114000000007070000010307070606060707035C
:101150000000000303000000000000000018180059
:10116000000000000000000000000000000000007F
:10117000000000000000000000000000000000006F
:10118000000000000000000000000000000000005F
:10119000000000000000000000000000000000004F
:1011A000000000000000000000000000000000003F
:1011B000000000000000000000000000000000002F
:1011C000000000000000000000000000000000001F
:1011D000000000000000000000000000000000000F
:1011E00000000000000000000000000000000000FF
:1011F00000000000000000000000000000000000EF
:1012000000000000000000000000000000000000DE
:1012100000000000000000000000000000000000CE
:1012200000000000000000000000000000000000BE
:1012300000000000000000000000000000000000AE
:10124000000000000000000000000000000000009E
:10125000000000000000000000000000000000008E
:10126000000000000000000000000000000000007E
:10127000000000000000000000000000000000006E
:1012800000000000000000000000000000000080DE
:10129000C0C00000000000000000000000000000CE
:1012A000000000000000000000000000000000003E
:1012B000000000000000000000000000000000002E
:1012C000000000000000000000000000000000001E
:1012D000000000000000000000000000000000000E
:1012E00000000000000000000000000000000000FE
:1012F00000000000000000000000000000000000EE
:10130000003EFEF000000000FEFEFE0000000007B0
:101310000701000000FEFE1E0E0E07070000000081
:1013200000000000000000000000000000000000BD
:1013300000000000000000000000000000000000AD
:10134000000000000000000000000000000000009D
:10135000000000000000000000000000000000008D
:10136000000000000000000000000000000000007D
:10137000000000000000000000000000000000006D
:101380000000071F1C1C1C0F071F3F380000000037
:1013900000000000001F1F0000000000000000000F
:1013A000000000000000000000000000000000003D
:1013B000000000000000000000000000000000002D
:1013C000000000000000000000000000000000001D
:1013D000000000000000000000000000000000000D
:1013E00000000000000000000000000000000000FD
:1013F00000000000000000000000000000000000ED
:101400000000C0F0F8381878F0E00000000000009C
:1014100000000000000000000000000000000000CC
:10142000000000000000000000000000E0E00000FC
:101430000000000000000000000000F8F8000000BC
:1014400000F8F800000000000000000000000000AC
:10145000000000000000000000000000000000008C
:10146000000000000000000000000000000000007C
:10147000000000000000000000000000000000006C
:101480006060FFFFE0600000000000ECEC00000086
:10149000000000F0F838181C1E0E008080F8FCFCDC
:1014A000EC7C3C00000000F0FCFC9CFCFFFF00001A
:1014B00000000000808080000000383F0F00000026
:1014C000000F0F00000080C0C000000000000000FE
:1014D000000000000000000000000000000000000C
:1014E00000000000000000000000000000000000FC
:1014F00000000000000000000000000000000000EC
:1015000000000303000000000000000707060000C1
:1015100000000003030000000000000101030707B2
:1015200007070303000000000101010101010000A1
:1015300000000000010307070E0E0C0C0C0C1C1819
:1015400018181C1C0E0F070100000000000000000E
:10155000000000000000000000000000000000008B
:10156000000000000000000000000000000000007B
:10157000000000000000000000000000000000006B
:10158000000000000000000000000000000000005B
:10159000000000000000000000000000000000004B
:1015A000000000000000000000000000000000003B
:1015B000000000000000000000000000000000002B
:1015C000000000000000000000000000000000001B
:1015D000000000000000000000000000000000000B
:1015E00000000000000000000000000000000000FB
:1015F00000000000000000000000000000000000EB
:1016000000000000000000000000000000000000DA
:1016100000000000000000000000000000000000CA
:1016200000000000000000000000000000000000BA
:1016300000000000000000000000000000000000AA
:10164000000000000000000000000000000000009A
:10165000000000000000000000000000000000008A
:10166000000000000000000000000000000000007A
:10167000000000000000000000000000000000006A
:1016800000000000000000000000000080C0C0C09A
:10169000000000000000000000000000000000004A
:1016A000000000000000000000000000000000003A
:1016B000000000000000000000000000000000002A
:1016C00000000000000080C0C0C00000000000005A
:1016D000C0C0C000000000000000000000000000CA
:1016E00000000000000000000000000000000000FA
:1016F00000000000000007C7CFCF0E0E0E00000054
:10170000000000000000000000000EEFEFE7030102
:10171000000000000007070F1F3E7CF8F0E0C0004B
:1017200000000000000000000000000000000000B9
:1017300000000000000000000000000000000000A9
:1017400000000000F8FEFF1F0701000080E0FCFF22
:101750007F0F0300000000000000000000000000F8
:10176000000000000000000000000080C0C0C000B9
:101770000000000000000001010100000000000066
:1017800000EEEEEEC080000000000000000000004F
:1017900000FCFCFC000000000000000007FFFFFE52
:1017A0009E8E8F8F8787878787808080800000004C
:1017B0000000000000000000000000000000000029
:1017C000000000070F0F0F000000808E8F0F070131
:1017D0000000000000000000000000000000000009
:1017E0000000000000000000001F0F0707030100B9
:1017F0000080808000000000001C3E7EFEF0E0E0E3
:10180000E0F1FB7F3F1F1E1C1C3C3C383C3C1C1E77
:101810001F0F07030000000000000000000F0F0F63
:101820000303030303030303030303030300000091
:1018300000000000000000000000000000000000A8
:10184000001C1E1E0E000000000003030300000029
:101850000000000000000000000000000000000088
:1018600000000000000000000000C0E0F0F87C3E36
:101870001F0F070300000000000000000000000030
:101880000000000000000000000000000000000058
:1018900000000000008080800080808080000000C8
:1018A000000000E0F0F878B8F8F8F0000000000060
:1018B0000000000000000000000000000000000028
:1018C0000000000000000000000000000080E0F0C8
:1018D000F878383C3C1C1C1C000000000000000094
:1018E00000000000000000000000010101000000F5
:1018F00000000000E0F0F87C3C7CF8F8F8F8E0E04C
:10190000F8F8F83C3C1CFCFCF8F0E0000000003C5F
:101910007CFCFCFEFFCF0F3FFFFFFFE71F3F7EF881
:10192000F0E0001F3F7FFFF7E7E3E1F0F87C3E1EA9
:101930000E0E00000000000000000000E0E0E000EB
:1019400000FCFEFFFFFF7F3F1E0080C0C0CF3FFFB7
:10195000FFF8000000000000000000000000000090
:101960000000000000000000000000000000000077
:1019700000000000030F1F1F1C1C1EDFEFFFFFFFF6
:10198000FF0F1F3F3C38383D3F1F0F0F1F3E3C38B5
:10199000383803070F0F0E00000303030000000791
:1019A00007070000000000000000E0E0E0E0E0F0D9
:1019B000F0F0E0C0001F3F7FF8F0E0E0FFFF7F00A5
:1019C00000030303070F0F0E0E0F0F0703010001A3
:1019D000C1C1C000000000000080808E8E8E80009B
:1019E00000000000000000000000000000000000F7
:1019F000000000000000000000003F7F7F7B7F3F71
:101A00001F0F0000000000000000000000000000A8
:101A100000000000000000000000000000000000C6
:101A200000000000000000000000010F1F1F1D1C2F
:101A30001E1F0F070000000000010101010000004F
:101A40000000000000000000000000000000000096
:101A5000010101000000003E3F3F070303070707A5
:101A6000070000000000000000000000000000006F
:101A70000000000000000000000000000000000066
:101A80000000000000000000000000000000000056
:101A90000000000000000000000000000000000046
:101AA0000000000000000000000000000000000036
:101AB0000000000000000000000000000000000026
:101AC0000000000000000000000000000000000016
:101AD0000000000000000000000000000000000006
:101AE00000000000000000000000000000000000F6
:101AF00000000000000000000000000000000000E6
:101B0000000000C0C0C0C0C08000000000C0C0C055
:101B100040C0C000000000C0C00000000000000085
:101B20000000C0C000000000C0C0C040C0C0000035
:101B3000C00000C0C0000040400000C0C000000065
:101B4000000000C0C0000000000000000000C0C095
:101B50000000000000000000000000000000000085
:101B60000000000000000000000000000000000075
:101B70000000000000000000000000000000000065
:101B8000000000FFFF010103FFFF0000003FFFFC1A
:101B9000CECFC7C0000000073FFEF0F0783838789D
:101BA000787F1F03000000C0CFDFDCF8F8000000E2
:101BB000FFFE7EF3E00000FEFE0000FFFFC0C0C09D
:101BC000000000FFFFC0C0C0C00000000000CFCF79
:101BD0000000000000000000000000000000000005
:101BE00000000000000000000000000000000000F5
:101BF00000000000000000000000000000000000E5
:101C000000000000000000000000000000000000D4
:101C100000000000000000000000000000000000C4
:101C200000000000000000000000000000000000B4
:101C300000000000000000000000000000000000A4
:101C40000000000000000000000000000000000094
:101C50000000000000000000000000000000000084
:101C60000000000000000000000000000000000074
:101C70000000000000000000000000000000000064
:101C80000000000000000000000000000000000054
:101C90000000FEFE60E0E0C08000C0C0FEFE30300C
:101CA00000000000FEFE0C0C0C3CFCF000000000EC
:101CB00000FEFE6EECFCFC80000000000000000056
:101CC0000000000000000000000000000000000014
:101CD0000000000000000000000000000000000004
:101CE00000000000000000000000000000000000F4
:101CF00000000000000000000000000000000000E4
:101D000000000000000000000000000000000000D3
:101D100000000F0F0C0C0D0F0F0000000F0F0C0C2C
:101D20000C0C00000F0F000000000F0F000000005F
:101D3000000F0F0C0C0F0F07000000000000000048
:101D40000000000000000000000000000000000093
:101D50000000000000000000000000000000000083
:101D60000000000000000000000000000000000073
:101D70000000000000000000000000000000000063
:101D80000000000000000000000000000000000053
:101D90000000000000000000000000000000000043
:101DA0000000000000000000000000000000000033
:101DB0000000000000000000000000000000000023
:101DC0000000000000000000000000000000000013
:101DD0000000000000000000000000000000000003
:101DE00000000000000000000000000000000000F3
:101DF00000000000000000000000000000000000E3
:101E000000000000000000000000000000000000D2
:101E100000000000000000000000000000000000C2
:101E200000000000000000000000000000000000B2
:101E300000000000000000000000000000000000A2
:101E40000000000000000000000000000000000092
:101E50000000000000000000000000000000000082
:101E60000000000000000000000000000000000072
:101E70000000000000000000000000000000000062
:101E80000000000000000000000000000000000052
:101E90000000000000000000000000000000000042
:101EA0000000000000000000000000000000000032
:101EB0000000000000000000000000000000000022
:101EC0000000000000000000000000000000000012
:101ED0000000000000000000000000000000000002
:101EE00000000000000000000000000000000000F2
:101EF00000000000000000000000000000000000E2
:101F0000000000C0C0C0C0C08000000000C0C0C051
:101F100040C0C000000000C0C00000000000000081
:101F20000000C0C000000000C0C0C040C0C0000031
:101F3000C00000C0C0000040400000C0C000000061
:101F4000000000C0C0000000000000000000C0C091
:101F50000000000000000000000000000000000081
:101F60000000000000000000000000000000000071
:101F70000000000000000000000000000000000061
:101F8000000000FFFF010103FFFF0000003FFFFC16
:101F9000CECFC7C0000000073FFEF0F07838387899
:101FA000787F1F03000000C0CFDFDCF8F8000000DE
:101FB000FFFE7EF3E00000FEFE0000FFFFC0C0C099
:101FC000000000FFFFC0C0C0C00000000000CFCF75
:101FD0000000000000000000000000000000000001
:101FE00000000000000000000000000000000000F1
:101FF00000000000000000000000000000000000E1
:1020000000000000000000000000000000000000D0
:1020100000000000000000000000000000000000C0
:1020200000000000000000000000000000000000B0
:1020300000000000000000000000000000000000A0
:102040000000000000000000000000000000000090
:102050000000000000000000000000000000000080
:102060000000000000000000000000000000000070
:102070000000000000000000000000000000000060
:102080000000000000000000000000000000000050
:102090000000FEFE60E0E0C08000C0C0FEFE303008
:1020A00000000000FEFE0C0C0C3CFCF000000000E8
:1020B000000000FEFEC6C6FEFE000000000000009C
:1020C0000000000000000000000000000000000010
:1020D0000000000000000000000000000000000000
:1020E00000000000000000000000000000000000F0
:1020F00000000000000000000000000000000000E0
:1021000000000000000000000000000000000000CF
:1021100000000F0F0C0C0D0F0F0000000F0F0C0C28
:102120000C0C00000F0F000000000F0F000000005B
:102130000000000F0F00000F0F0000000000000063
:10214000000000000000000000000000000000008F
:10215000000000000000000000000000000000007F
:10216000000000000000000000000000000000006F
:10217000000000000000000000000000000000005F
:10218000000000000000000000000000000000004F
:10219000000000000000000000000000000000003F
:1021A000000000000000000000000000000000002F
:1021B000000000000000000000000000000000001F
:1021C000000000000000000000000000000000000F
:1021D00000000000000000000000000000000000FF
:1021E00000000000000000000000000000000000EF
:1021F00000000000000000000000000000000000DF
:1022000000000000000000000000000000000000CE
:1022100000000000000000000000000000000000BE
:1022200000000000000000000000000000000000AE
:10223000000000000000000000000000000000009E
:10224000000000000000000000000000000000008E
:10225000000000000000000000000000000000007E
:10226000000000000000000000FF81BDA5A5BD81A9
:10227000FFFF818181818181FFFF81818181818156
:10228000FFFF81BDA5A5BD81FF669981814224180C
:102290000066FFFFFF7E3C18000000000000000009
:1022A000000000000000000000000000000000002E
:1022B000000000000000000000000000000000001E
:1022C00000000000000000003048FC08080000008A
:1022D00000000000000000000000000000000000FE
:1022E000000000000000000008081F0906000000B0
:1022F00000000000000000000000000000000000DE
:1023000000000000000000000000000000000000CD
:1023100000000000000000000000000000008080BD
:10232000800000000000000000000000000000002D
:10233000000000000000000000000000003FC76730
:10234000271FE0FE120C0808C40C040CC40C080C77
:1023500012FE00000000000000000000000001026A
:102360000202061F1515352024282628242035159D
:10237000151F000000000000000000000000000029
:10238000000000000000000000000000000000004D
:102390000000000000000000000000006060F8F88D
:1023A000FCFC606060600000FCFC6C7CFCBC00001D
:1023B000000000000000000000000000000000001D
:1023C0000000F80C040C18000020D058E020A020D9
:1023D00050B800C04040C0000080C08000000080B5
:1023E00040C00020D058E020A02050B800F80000E5
:1023F00000000000000000000000000000000000DD
:1024000000000000000000000000000000000000CC
:1024100000000000000000000000000000000101BA
:102420000303000000000000030302030303000095
:10243000000000000000000000000000000000009C
:10244000000001030604060300010204050605045A
:102450000403000700000107000003040402000752
:10246000000000010204050605040403000704043B
:102470000400000000000000000000000000000058
:10248000000000000000000000000000000000004C
:10249000000000000000000000000000000000003C
:1024A0000000000000000080808080F8F8808080BC
:1024B00080000000008080E0E0F8F8E0E08080002C
:1024C0000000008080E0E0F8F8808080800000005C
:1024D0000080808080F8F8E0E080800000000080CC
:1024E0008080808080000000F8F89878780000F8FC
:1024F000F8808080000000D8D800F0F8B8D8F8F84C
:10250000780000F8F8000000000000808080F8F8F3
:1025100000000000000000000000000000000000BB
:1025200000000000000000010107071F1F0707014E
:102530000100000000010101011F1F010101010054
:10254000000000010107071F1F0101010100000039
:1025500000010101011F1F07070101000000000128
:10256000010101010100000C0C0F0F070000000F1A
:102570000F01030F0F00000F0F0003070F0F0F0DC8
:102580000C00000F0F0C0C0C00000E0F0F0D0F0FA6
:10259000000000000000000000000000000000003B
:1025A000000000000000000000FEFE6666FEFE0067
:1025B0000000303030300000000000FBFB0000FF66
:1025C000FF060EFEF800007FFFF0FC3F0F0000FB4F
:1025D000FB0000809FFFF3EF0F0000FBFB0000FFFC
:1025E000FFD8F8F8F00000FFFF80808080007EFFB9
:1025F000F7FBFFBF8F00000000000000000000009C
:1026000000000000000000000000000000000000CA
:1026100000000000000000000000000000000000BA
:10262000000000000000000000E1E160E0E1E100E6
:10263000000000000000000000E0E06121E0E00197
:1026400001E0E061E1E0E000010180E0E000000184
:10265000010000E1E161E1E0E00000E1E16060E152
:10266000E10101E0E0C0C0E1E10101010100000081
:102670000101010101000000000000000000000055
:10268000000000000000000000000000000000004A
:10269000000000000000000000000000000000003A
:1026A0000000000000000000001F1F131B1F1D0082
:1026B0000000030303030000001F1F1C1C1C1C0060
:1026C000001F1F1C0F0F1F1F1800011F1F1B1818B2
:1026D0000000001F1F131B1F1D00000F1F1C1C1FCD
:1026E0000F00001C1F0F070F1E1C00000000000041
:1026F00000000000000000000000000000000000DA
:1027000000000000000000000000000000000000C9
:1027100000000000000000000000000000000000B9
:1027200000000000000000000000000000000000A9
:102730000000000000000000000000000000000099
:102740000000000000000000000000000000000089
:102750000000000000000000000000000000000079
:102760000000000000000000000000000000000069
:102770000000000000000000000000000000000059
:102780000000000000000000000000000000000049
:102790000000000000000000000000000000000039
:1027A00000000000000000000000C0E070381C0CB9
:1027B0000C0C3C3800E0E0000070700000E0E0002D
:1027C000000000000000000000000000E0F0300009
:1027D00000808000000000000000000000000000F9
:1027E00000000000000000000000000000000000E9
:1027F00000000000000000000000000000000000D9
:1028000000000000000000000000000000000000C8
:1028100000000000000000000000000000000000B8
:10282000000000000000000000FFFF810000000029
:10283000C0C0000038FCEC8C8E86868EFCFCF8C094
:1028400080000C0CFFFF8E8686C0C00001C1C0E076
:102850006F7F7B736000000000000000000000003C
:102860000000000000000000000000000000000068
:102870000000000000000000000000000000000058
:102880000000000000000000000000000000000048
:102890000000000000000000000000000000000038
:1028A0000000000000000000000001030303030318
:1028B00003010000000001010101010139F8E001FC
:1028C0000180800080F1F101F925D8181010D0188E
:1028D00026F80000F0F838381C0C00007CFCF0787A
:1028E0001C0E0600000CECEC0000F8F8F818F8F0EC
:1028F0000060F0F83C0C9CF8F8F0C000000000000C
:1029000000000000000000000000000000000000C7
:1029100000000000000000000000000000000000B7
:1029200000000000000000000000000000000000A7
:102930000000000000000000000000000001070F80
:102940000F070F0E07035028170E1A1416141A1823
:102950001C2F102E0F070000000000001B1F0F1C73
:102960001818000000001FDFC000EFEF00C0C30711
:102970000600030706377BFDEC7D3F0F00000000DB
:102980000000000000000000000000000000000047
:102990000000000000000000000000000000000037
:1029A0000000000000000000000000000000000027
:1029B0000000000000000000000000000000000017
:1029C0000000000000000000000000000000000007
:1029D00000000000000000000000000080C0E07067
:1029E0003030FFFF00C0E0F1313818181839FDFC15
:1029F000000078FCDCC0C0F8F8C00000183C3C7C4B
:102A0000ECE0C0000000000000000000000000003A
:102A100000000000000000000000000000000000B6
:102A200000000000000000000000000000000000A6
:102A30000000000000000000000000000000000096
:102A40000000000000000000000000000000000086
:102A50000000000000000000000000000307060660
:102A60000606030300000103070E0C0C0C0E071FE3
:102A70001E000030706070303F1F00000003070729
:102A80000301000000000000000000000000000042
:102A90000000000000000000000000000000000036
:102AA0000000000000000000000000000000000026
:102AB0000000000000000000000000000000000016
:102AC0000000000000000000000000000000000006
:102AD00000000000000000000000000000000000F6
:102AE00000000000000000000000000000000000E6
:102AF00000000000000000000000000000000000D6
:102B000000000000000000000000000000000000C5
:102B100000000000000000000000000000000000B5
:102B200000000000000000000000000000000000A5
:102B30000000000000000000000000000000000095
:102B40000000000000000000000000000000000085
:102B50000000000000000000000000000000205005
:102B60007E00705070007A004E52523E007804048D
:102B7000080070507840007E4040007A004E526459
:102B80000000107C504000385454080070507840C9
:102B900000780418087C000000080B000202020004
:102BA00000090400000102020000052400100105D4
:102BB0002401010104240206052406000107058101
:102BC0000310004009040100020A0000000705028A
:102BD00002400000070583024000000403090412BC
:102BE000010002EF0201404123368000010102038F
:102BF0000141726475696E6F204C4C4300417264F0
:102C000075696E6F204C656F6E6172646F00AE1EE9
:102C100011241FBECFEFDAE0DEBFCDBF11E0A0E090
:102C2000B1E0E8E2F1E502C005900D92A23FB107E4
:102C3000D9F726E0A2EFB1E001C01D92AA3CB2078D
:102C4000E1F716E1C8E0D6E104C02197FE010E9439
:102C50008C28C730D107C9F70E94CB1E0C9492284C
:102C60000C9400002F923F924F925F926F927F924E
:102C70008F929F92AF92BF92CF92DF92EF92FF928C
:102C80000F931F93CF93DF9330E0F901E80FF91F03
:102C90001E161F060CF098C0803891050CF094C0E9
:102CA000FB01E00FF11D1E161F060CF08DC06034F5
:102CB00071050CF089C0DB0177FF04C0AA27BB2790
:102CC000A61BB70BA770BB27EB0177FD2796E3E0A8
:102CD000D595C795EA95E1F777FF07C0219768E09A
:102CE00070E0FB01EA1BFB0BDF01069506950695DC
:102CF000602E712C7A01AE015695542F44275795BA
:102D00004795480F591F4A585D4FBE01E8E0F0E073
:102D10002F014A1A5B0A6F3FFFEF7F070CF444C094
:102D20006C0110E000E04A01F0E88F0E911CD7FC26
:102D30002EC06F3F760709F45AC0F701E00FF11F6C
:102D4000E4915A01A00EB11EF0E01F010A2E01C04D
:102D5000220C0A94EAF7F50130802328208210978C
:102D6000B1F06730710599F0F701E00FF11FE491C0
:102D70005401A00EB11EF0E01F01042C02C03594D6
:102D800027940A94E2F7F5013080232820820F5F10
:102D90001F4FFFEFCF1ADF0A021713072CF4E0E8EA
:102DA000CE16D10409F0C3CF6F5F7F4FE20EF31E42
:102DB00040585F4FFB01EC1BFD0BE615F70524F4B3
:102DC0006830710509F0A7CFDF91CF911F910F9166
:102DD000FF90EF90DF90CF90BF90AF909F908F903B
:102DE0007F906F905F904F903F902F900895109735
:102DF00009F0BACFCCCF9C01CB018770992791E025
:102E000001C0990F8A95EAF777FF02C0695F7F4F8B
:102E1000FB0183E0F595E7958A95E1F7F695FE2F9E
:102E2000EE27F795E795E20FF31FEA58FD4F415063
:102E300030F08191DF011197892B8C93F8CF0895A1
:102E4000E6E7F2E0A0E0B8E000800EBC8111012CC2
:102E50001197A0FDFDCF0192B9F70DB40895FC01C3
:102E600080917502882311F13FB7F89482E0809336
:102E7000E9002091F200822F90E01816190614F450
:102E800081E090E0882339F0289844E6409374026A
:102E90004091F1004083222339F02091F20021116A
:102EA00003C02BE62093E8003FBF08958FEF9FEF0C
:102EB00008952FB7F89483E08093E9009091E8009B
:102EC000892F807295FF04C09091F20080E4891BE5
:102ED0002FBF089580916C0281110DC082E0809314
:102EE000680284E08093690210926B0210926A0279
:102EF00081E080936C0288E692E00895CF93DF939F
:102F00001F92CDB7DEB76983DC01ED91FC910280A1
:102F1000F381E02D41E050E0BE016F5F7F4F0995E6
:102F20000F90DF91CF91089583E08093E900809125
:102F3000F200882319F08AE38093E80008950E9444
:102F4000591790E00895CF93DF931F92CDB7DEB766
:102F5000FC018485958597FD08C02FEF3FEF3587ED
:102F600024870F90DF91CF910895CE0101960E94A2
:102F70002F17019719F4898190E0F3CF8FEF9FEF1E
:102F8000F0CF0F931F93CF93DF931F92CDB7DEB790
:102F90008C01FC018485958597FF0BC0CE010196BD
:102FA0000E942F17019771F4898190E0F8019587AD
:102FB0008487F801848595850F90DF91CF911F91CB
:102FC0000F9108958FEF9FEFF1CFFC0184859585D8
:102FD00097FD0BC09FB7F89482E08093E900809141
:102FE000F2009FBF90E0019608959FB7F89482E0A9
:102FF0008093E9008091F2009FBF90E00895409196
:103000006202509163022091600230916102421786
:103010005307B4F49091E8009570E1F39091E800C3
:1030200092FD19C08093F100809162029091630239
:1030300001968F739927892B19F48EEF8093E800FE
:103040008091620290916302019690936302809353
:10305000620281E0089580E00895DF92EF92FF928E
:103060000F931F93CF93DF93D82E8A01EB017B013F
:10307000E40EF51ECE15DF0559F0D7FE12C0FE0195
:1030800084910E94FF1721968111F4CF0FEF1FEF5B
:10309000C801DF91CF911F910F91FF90EF90DF90CA
:1030A00008958881EECF0F931F93CF93DF931F92E4
:1030B000CDB7DEB782E0898342E450E069E97BE284
:1030C00080E80E942D180E946A17DC0112960D916B
:1030D0001C910115110589F0D801ED91FC91028038
:1030E000F381E02DBE016F5F7F4FC801099597FD09
:1030F00004C0F80100851185ECCF89810F90DF9124
:10310000CF911F910F910895615030F02091F100FF
:10311000FC0120830196F8CF289884E680937402FE
:103120000895AF92BF92CF92DF92EF92FF920F93EA
:103130001F93CF93DF936C017B018B01040F151F4D
:10314000EB015E01AE18BF08C017D10759F06991B5
:10315000D601ED91FC910190F081E02DC601099519
:10316000892B79F7C501DF91CF911F910F91FF90C6
:10317000EF90DF90CF90BF90AF9008953FB7F89455
:103180008091F7019091F801A091F901B091FA01B5
:1031900026B5A89B05C02F3F19F00196A11DB11DB2
:1031A0003FBFBA2FA92F982F8827BC01CD01620FEE
:1031B000711D811D911D42E0660F771F881F991FA9
:1031C0004A95D1F708958F929F92AF92BF92CF9276
:1031D000DF92EF92FF926B017C010E94BE184B01BF
:1031E0005C01C114D104E104F104B9F00E94BE18DD
:1031F000681979098A099B09683E73408105910520
:1032000080F321E0C21AD108E108F10888EE880EA7
:1032100083E0981EA11CB11CE4CFFF90EF90DF90DB
:10322000CF90BF90AF909F908F9008958F929F9274
:10323000AF92BF92CF92DF92EF92FF920F931F93C4
:10324000CF93DF936C017B018A0180911001882369
:1032500009F45CC080917502882309F457C08091FD
:10326000670280FF05C08091E00082608093E000EB
:10327000E801B12C8AEFA82E93E0892E2AE3922E42
:10328000209711F4BB20D9F10E94591781110AC06F
:10329000AA94AA20D9F161E070E080E090E00E9459
:1032A000E318EECF8C171D0611F00CF08C2F9FB792
:1032B000F8948092E9002091E80025FD02C09FBFAC
:1032C000DFCF282F30E0C21BD30BF701815020F055
:1032D00041914093F100FACFE20EF31EBB2021F0A2
:1032E0009092E800B12CEBCF8091E80085FDE7CF0C
:1032F0009092E800BB24B394209709F3F3CF5D9834
:1033000084E680936602101611063CF081E090E09E
:10331000F6019383828310E000E0C801DF91CF9132
:103320001F910F91FF90EF90DF90CF90BF90AF90E3
:103330009F908F9008952FB7F8946091F30170914A
:10334000F4018091F5019091F6012FBF08952D9A17
:103350000895BC0190E080E00C94E3188FB1809553
:10336000807F669B88601C9B846008953E9A3F9A8C
:10337000089590910502982329F4909106029823CC
:1033800081E009F480E00895CF93C82F0E94AE1920
:10339000982F9C2381E09C1380E0CF91089580E0DA
:1033A0000C94201780389105B8F460347105A0F4AE
:1033B00020E191E061FD94E060FD990F62FD92953E
:1033C000687F269FD0011124A80FAA58BD4F8C9169
:1033D00040FF03C0892B8C93089590958923FBCFE0
:1033E000EF92FF920F931F93CF93DF937C01EB013A
:1033F0008B01040F111DC017D1073CF441E0BE0141
:10340000C7010E94D2192196F6CFDF91CF911F916B
:103410000F91FF90EF900895EF92FF920F931F93FB
:10342000CF93DF937C018B01C42FD22F0E94FB1618
:10343000B8016D0F711D615071094C2FC7010E94B9
:10344000FB164D2FB801C7010E94F019C7018C0F60
:10345000911D4D2FB8010197DF91CF911F910F91D1
:10346000FF90EF900C94F0198F929F92AF92BF92C1
:10347000CF92DF92EF92FF920F931F93CF93DF9340
:103480006D3089F0C0900102D09002026A30D1F410
:10349000109200021092FF0188E0C80ED11CD09259
:1034A0000202C092010281E090E0DF91CF911F9172
:1034B0000F91FF90EF90DF90CF90BF90AF909F90D3
:1034C0008F9008950091FF0110910002E5E06E9F3A
:1034D000E0011124C455DF4F4801F12CF5E0E12C47
:1034E000FF1629F0CE010196FE01E490EC01B12C0B
:1034F000A12C4E2D4170B6016A0D7B1DC4010E94A6
:10350000D219E694FFEFAF1ABF0A88E0A816B104FB
:1035100081F7F394EFEF8E1A9E0AF6E0FF12DECFEA
:103520000A5F1F4F109300020093FF01BCCFCF92A0
:10353000DF92EF92FF9280910101833080F00E9430
:103540009B1921E0C0904C02D0904D02E0904E02B9
:10355000F0904F02C616D706E806F90608F020E0FC
:10356000822FFF90EF90DF90CF90089583E08093BB
:103570000201109212021092110210921002109287
:103580000F0281E08093010110925D0210925C02B3
:103590001092540210925502109256021092570245
:1035A000109258021092590210925A0210925B0225
:1035B00010924C0210924D0210924E0210924F0245
:1035C0001092500210925102109252021092530225
:1035D0001092170288E097E0909304018093030112
:1035E0000E949B1960930B0270930C0280930D0252
:1035F00090930E020E949B196093480270934902B7
:1036000080934A0290934B02E8E1F2E0178217861A
:10361000178A178E17A217A6089584E080930402D4
:1036200080E4809390008CEE95E0909399008093D5
:1036300098000895089590E080E008958F929F92F9
:10364000AF92BF920F931F93CF93DF93CDB7DEB7A7
:10365000A1970FB6F894DEBF0FBECDBF19A24230BE
:1036600008F44AE08E010F5D1F4F842E912CB12C7F
:10367000A12CA50194010E945B28E62FB901CA0183
:10368000EA3044F5E05DD801EE938D01232B242B25
:10369000252B79F790E080E0109769F0FD0101900B
:1036A0000020E9F73197AF014A1B5B0BBD0186ECA7
:1036B00096E00E949118A1960FB6F894DEBF0FBE57
:1036C000CDBFDF91CF911F910F91BF90AF909F9091
:1036D0008F900895E95CD7CF009769F0FC010190C5
:1036E0000020E9F73197AF01481B590BBC0186EC6C
:1036F00096E00C94911890E080E00895BC0190E071
:1037000080E04AE00C941E1B0C94132882E090E0A9
:103710000E94841B81110C94B6193E983F9808951D
:103720001F920F920FB60F9211248F939F93809147
:10373000E1009091E100937F9093E10083FF0FC03F
:103740001092E90091E09093EB001092EC0092E36C
:103750009093ED001092750298E09093F00082FF34
:1037600022C093E09093E9009091F200992319F020
:103770009AE39093E80090916602992341F090912A
:103780006602915090936602911101C05D9A9091EA
:103790007402992341F090917402915090937402B5
:1037A000911101C0289A84FF18C08091E2008E7E9A
:1037B00081608093E2008091E1008F7E8093E10040
:1037C000809167028E7E8061809367029F918F91C6
:1037D0000F900FBE0F901F90189580FFF7CF80912C
:1037E000E2008E7E80618093E2008091E1008E7E17
:1037F0008093E100809167028E7E8160E5CF1F9209
:103800000F920FB60F921124CF92DF92EF92FF9298
:103810000F931F932F933F934F935F936F937F93D8
:103820008F939F93AF93BF93EF93FF93CF93DF93C8
:10383000CDB7DEB76C97DEBFCDBF1092E9008091A7
:10384000E80083FF25C068E0CE0145960E948418F9
:1038500082EF8093E8008D8987FF39C09091E8005E
:1038600090FFFCCF982F907609F034C19E894F8944
:10387000588D2F89F88C911131C0803861F5809175
:1038800065028093F1001092F1008EEF8093E800C2
:103890006C960FB6F894DEBF0FBECDBFDF91CF910F
:1038A000FF91EF91BF91AF919F918F917F916F9118
:1038B0005F914F913F912F911F910F91FF90EF904A
:1038C000DF90CF900F900FBE0F901F9018959EEF36
:1038D0009093E800C7CF1092F100D5CF913059F402
:1038E0008111D3CF4130510581F6809165028D7FE2
:1038F00080936502CACF933049F48111C6CF41301D
:10390000510519F6809165028260F2CF953041F43D
:103910008091E80080FFFCCF20682093E300B5CFC2
:10392000963009F0A9C00B8D1C8D22E01092E900A1
:103930001092630210926202F2122EC01092610283
:10394000109260020E9453181F8299E09983FA82B4
:1039500091E09E8390EA98879AEF9987209162027E
:1039600030916302275F3F4F3C832B838D831092FE
:10397000E9001092630210926202109361020093B8
:10398000600249E050E0BE016F5F7F4F80E00E941F
:103990002D180E94531879CF109361020093600292
:1039A0000E946A17DC0112960D911C9101151105F8
:1039B00009F451C1D801ED91FC910480F581E02D0D
:1039C000BE016B5E7F4FC8010995009709F03EC1AB
:1039D000F80100851185EACFF3E0FF120EC08F8950
:1039E000882309F440C0823061F440E860E18DEF43
:1039F0009BE20E947B1E811148CF81E28093EB0005
:103A000047CF813029F440E86BE081EF9BE2F1CFB2
:103A1000833099F70E946A17DC011296ED90FC90B2
:103A20008E010F5F1F4F6801E114F10479F0D70197
:103A3000ED91FC910680F781E02DB801C701099551
:103A4000080F111DF701E084F184EECFD8011C921C
:103A5000F60101900020E9F73197BF016C197D094B
:103A600040E0C601C6CF6BED7BE2FB01449150E024
:103A700080E80E942D1809CF973009F4BECF983006
:103A800021F481E08093F10000CF993009F0FDCE60
:103A9000837009F0B2CFE2E2F1E081E031E096E339
:103AA0002191222371F08093E9003093EB00DF0134
:103AB00011972C912093EC009093ED008F5F87304D
:103AC00079F78EE78093EA001092EA008F8980935D
:103AD0007502DBCE8B8D9C8D1092E90010926302F3
:103AE000109262029093610280936002898D81112D
:103AF00092C08E899D89913A49F4813209F07DCF37
:103B000047E050E069E071E080E0B3CF913209F026
:103B100074CF833269F48F89988DB0E0A0E08093F0
:103B2000050190930601A0930701B0930801ADCE63
:103B3000803269F48091E80082FFFCCF67E089E081
:103B400091E00E9484188BEF8093E8009ECE823231
:103B500009F09BCE8F8980931001EEEFFFE78591EE
:103B600094918B3F9C4D51F1E0E0F8E08091090188
:103B700090910A01A0910B01B0910C01803B9440FF
:103B8000A105B105F1F48091100180FD1AC0EE3F4E
:103B90008AE0F80789F587E797E79183808380912A
:103BA00060008093640288E19BE00FB6F894A895CA
:103BB000809360000FBE9093600067CEEEEFFAE056
:103BC000D5CF808191818737974709F05ECEA89540
:103BD000809160008861809360008091640280938E
:103BE0006000EE3F2AE0F20789F08091FE0A909192
:103BF000FF0A9183808349CE80819181873798071E
:103C000051F29093FF0A8093FE0AC5CF1092FF0AEB
:103C10001092FE0A3ACE0E946A17DC0112960D91AC
:103C20001C910115110509F4E8CED801ED91FC9124
:103C30000190F081E02DBE016B5E7F4FC8010995B8
:103C4000811123CEF80100851185EBCF18161906D6
:103C50000CF41BCED2CEF1E0FF12BECE6FED7BE2B4
:103C600004CF1F920F920FB60F9211242F933F9300
:103C70008F939F93AF93BF938091F3019091F40141
:103C8000A091F501B091F6013091F20123E0230FEC
:103C90002D3758F50196A11DB11D2093F201809397
:103CA000F3019093F401A093F501B093F601809194
:103CB000F7019091F801A091F901B091FA010196F4
:103CC000A11DB11D8093F7019093F801A093F90114
:103CD000B093FA01BF91AF919F918F913F912F9136
:103CE0000F900FBE0F901F90189526E8230F029695
:103CF000A11DB11DD2CFEF92FF920F931F93CF93CF
:103D0000DF93F82E192FE62E042F81E0860F880FFF
:103D10000E94FF1783E00E94FF17CF2DD12FEC0EDA
:103D2000FD2EF11CCE15DF05B9F007FF13C0FE0113
:103D300084910E94FF17182F80E00E94FF178123B3
:103D400021968111EFCFDF91CF911F910F91FF90BD
:103D5000EF9008958881EDCF81E0F5CFE6E7F6E0BA
:103D60001382128288EE93E0A0E0B0E08483958312
:103D7000A683B7838CE291E0918380838FEF9FEFDE
:103D800095878487E6ECF6E0138212828EE391E059
:103D9000918380830895CF93DF9300D000D000D02B
:103DA000CDB7DEB7789484B5826084BD84B5816078
:103DB00084BD85B5826085BD85B5816085BD8091F6
:103DC0006E00816080936E0010928100809181006E
:103DD0008260809381008091810081608093810066
:103DE000809180008160809380008091910082604A
:103DF00080939100809191008160809391008091E7
:103E000090008160809390008091C10084608093D5
:103E1000C1008091C10082608093C1008091C10087
:103E200081608093C1008091C30081608093C30052
:103E30008091C00082608093C0008091C200816048
:103E40008093C20080917A00846080937A00809190
:103E50007A00826080937A0080917A0081608093FA
:103E60007A0080917A00806880937A0010927502BF
:103E700010926502109267028091D7008160809352
:103E8000D70080EA8093D80089B5806189BD89B563
:103E9000826089BD09B400FEFDCF61E070E080E082
:103EA00090E00E94E3188091D8008F7C806180931D
:103EB000D8008091E000807F8093E0008091E10055
:103EC0008E7E8093E1008DE08093E200559A209AE7
:103ED00081EC80937C0085B1806F85B984B1877E49
:103EE00084B984B1876E84B95E9A5F988AB1806D17
:103EF0008AB9769A6E9881B3806F81BB899880B3B6
:103F00008D7080BB80E58CBD81E08DBD85E090E04B
:103F10000E94A9195F9A85E090E00E94A9195E9815
:103F20005C98ECE5F6E084918EBD00000DB407FED0
:103F3000FDCF319606E0E936F007A9F75C9A81E8F3
:103F400080936400809165008160809365000E9489
:103F5000CF1980E80E94C4198823A9F05C9885EAEB
:103F60008EBD00000DB407FEFDCF5C9A2E982F98F1
:103F70002D988091640080628093640081E083BF0B
:103F8000889513BEFCCF84E00E94C419882309F4ED
:103F900048C02D9884E80E94C4198823E1F00E944B
:103FA000A71988EC90E00E94A9192F9882E090E070
:103FB0000E9413288F3F29F06FEF82E090E00E946B
:103FC0001B2884EF91E00E94A9192F9A84E80E948F
:103FD000C4198111FBCF84E10E94C4198823E1F048
:103FE0000E94A71988EC90E00E94A9192E9882E0FF
:103FF00090E00E941328882329F060E082E090E09E
:104000000E941B2884EF91E00E94A9192E9A84E156
:104010000E94C4198111FBCF88EC90E00E94A9197D
:10402000B2CF0E94A7190E94861B81E090E00E94F7
:10403000841B182F147081FF10C011112E9821EFCE
:104040003FEF3A83298380E40E94C419882309F44E
:1040500065C02E9A2F9A0E94A71982E390E00E94D1
:10406000A9190E94AE198111F8CF80E18093000157
:10407000809164008E7F8093640080917A008064D8
:1040800080937A0080917A0086FDFCCF00917800C1
:10409000109179000E94BE18AB01BC01C801B0E0CC
:1040A000A0E0DC01992788278C019D01040F151FD2
:1040B000261F371FC901B801209164002160209399
:1040C0006400611571058105910511F00E940A28AF
:1040D0000E94861B0E94B619109290008AE080937D
:1040E00091001092C00088E08093C1001092C3003C
:1040F0001092BF001092CF000E94B61A0E949B1926
:104100008091FD01882309F46FC01092FD0180E0C9
:1041100090E0892B99F30E940000F0CF112339F031
:1041200049815A814430510511F42E9A2F9881E02B
:104130000E94201700E128E54CEA55E069817A8168
:1041400084E190E00E9432160E94CF198FE090E047
:104150000E94A91989819A8101969A838983499736
:1041600009F071CF112311F02F9A2D9880E991E079
:104170000E94A9190E94A71981E090E00E94841B67
:1041800080FF6BCF8AE090E00E94841B9FEF980F26
:104190009E3F08F062CF22E330E03093000220938C
:1041A000FF0128E330E030930202209301020BE08C
:1041B00010E01A830983682F86EC96E00E94341A77
:1041C00089819A810E94841B09811A810F5F1F4F88
:1041D0001A8309830131110571F70E94CF1988EE06
:1041E00093E00E94A91939CF8091FE01162F181B68
:1041F000812F90910001191748F48F5F891708F0FB
:1042000086CF81E083BF889513BE81CF81E0809304
:10421000FD016093FE018091FB019091FC010196EC
:104220009093FC018093FB0180910602809305022C
:104230000E94AE198093060280910402882339F00F
:10424000815080930402811102C0109290008091ED
:104250000302882339F0815080930302811102C048
:104260001092C00080E0E6E7F2E081118FEF0024B9
:1042700081938193819381930394D1F710920202E9
:1042800010920102109200021092FF01E0915E0272
:10429000F0915F02E730F10508F067C0EE5AFE4D7D
:1042A0000C948C285921A021B821DF258426BF2613
:1042B000EE2600E420E849E957E270E060E090E093
:1042C00080E00E94321684E090E090930002809398
:1042D000FF0120E330E030930202209301028FE7D8
:1042E00091E00E946C1B80E490E090930002809328
:1042F000FF0140E350E0509302024093010287E83F
:1043000091E00E946C1B88E00E94B919882351F04B
:104310000E940D1B0E94B61A82E090E090935F020B
:1043200080935E0284E00E94B9198823F1F00E9414
:104330000D1B81E090E090935F0280935E0215C0B8
:1043400000E420E849E953E270E060E090E080E0BA
:104350000E94321684E00E94B919882331F00E942D
:104360000D1B10925F0210925E020E94CF19CFCEF9
:104370000E949B194B015C0180E80E94C4198823AC
:1043800021F010925D0210925C0280E10E94C4193B
:10439000882331F081E090E090935D0280935C028D
:1043A00080E20E94C419882331F082E090E090936B
:1043B0005D0280935C0280E40E94C419882331F07E
:1043C00083E090E090935D0280935C0288E00E941D
:1043D000B9198823D9F1809101018230B8F10E9486
:1043E0009B19009154021091550220915602309170
:1043F0005702061717072807390740F5D501C401EA
:104400008053984FAF4FBF4F8093580290935902FB
:10441000A0935A02B0935B02D501C401805C904E18
:10442000AF4FBF4F8093540290935502A093560212
:10443000B093570286E08093040280E4809390005A
:104440008AEB93E0909399008093980084E00E9417
:10445000B919882361F10E94971A882341F1D50187
:10446000C4018053984FAF4FBF4F80935002909339
:104470005102A0935202B0935302D501C40180525D
:10448000914DAF4FBF4F80934C0290934D02A0933C
:104490004E02B0934F0288E08093040280E4809340
:1044A00090008CEE95E09093990080939800809115
:1044B000480290914902A0914A02B0914B02B50185
:1044C000A401481B590B6A0B7B0B8091030190914F
:1044D0000401B0E0A0E084179507A607B707D0F461
:1044E000E8E1F2E01A8219828781882309F475C015
:1044F00009811A810F5F1F4F1A830983389606308E
:10450000110591F78092480290924902A0924A02C6
:10451000B0924B0228E132E03A832983A8E44A2E84
:10452000A2E05A2E3E832D83B3E0EB2E10E4F12E51
:104530000CE0D02ECC24C39480E4682E712CED8145
:10454000FE818781882361F10481158101151105A0
:1045500009F093C0268182819381820F911D27FDEE
:104560009A9593838283ED81FE818081918181344C
:1045700091050CF4A8C08C3491050CF4ABC0ED810E
:10458000FE81808191818096813C910530F4828109
:10459000938180968138910518F0ED81FE81178214
:1045A0000D811E81085F1F4F1E830D83401651062B
:1045B00031F6E09002011E140CF4FFC08EE18093EE
:1045C000040280E4809390008DEE93E19093990033
:1045D0008093980084E090E0AECE0E94BB2724E058
:1045E00030E040E050E00E94292809811A8193E0E0
:1045F000000F111F9A95E1F7085E1D4F1A8309837A
:10460000F8017583648321E02783E0910101F0E0E4
:10461000E35EFE4F2081F80126836130710509F1C8
:1046200074F4672B09F06ECF80E490E0E981FA81A1
:104630009183808380EF9FEF9383828363CF623087
:104640007105C1F080E990E06330710509F05ACF3F
:10465000E981FA819183808300E210E01383028371
:1046600051CF80E490E0E981FA819183808380E5F5
:1046700090E0E2CF80EF9FEFEBCFED81FE81013044
:10468000110541F4268182819381821B910927FDC6
:10469000939567CF808191810230110541F4268185
:1046A000820F911D27FD9A95918380835CCF033003
:1046B000110509F058CFED81FE812681821B9109F9
:1046C00027FD9395F1CF9301281B390B2C30310531
:1046D0000CF055CFED81FE8182819381813291056D
:1046E0000CF445C08C970CF04ACFED81FE81178207
:1046F0000E949B19209158023091590240915A0210
:1047000050915B026217730784079507C8F10E94F6
:104710009B192091500230915102409152025091C8
:104720005302621773078407950750F180915C026A
:1047300090915D020817190719F1809102018150CB
:1047400080930201D0920402F092900001ED1DE1ED
:104750001093990000939800C09217028092130260
:1047600090921402A0921502B092160208CF20E295
:1047700030E0281B390B2C3031050CF000CFB5CFC1
:1047800080911102909112020A96909312028093E6
:10479000110280910F0290911002019690931002E5
:1047A00080930F02E0920402F09290002FE634E032
:1047B0003093990020939800E2CE80910B02909163
:1047C0000C02A0910D02B0910E02A5019401281BCC
:1047D000390B4A0B5B0BDA01C901813335E79307CB
:1047E000A105B10550F180910101833078F08FE08F
:1047F0008093040280E4809390008AEB93E090938E
:1048000099008093980086E090E095CD88E08093B1
:10481000040280E4809390008BEF94E090939900E1
:10482000809398008092070290920802A092090259
:10483000B0920A0283E090E07ECDBC01CD01F7E0AA
:10484000660F771F881F991FFA95D1F720E335E788
:1048500040E050E00E945B28290110E000E00415D0
:1048600015054CF442E070E060E0C8010E94F019C8
:104870000F5F1F4FF4CFF0901702FF2009F4EEC036
:104880008091130290911402A0911502B09116022A
:1048900095018401081B190B2A0B3B0BC901B801B8
:1048A00024E630E040E050E00E945B28243008F429
:1048B000CFC0109217020E949B19009158021091CC
:1048C000590220915A0230915B02601771078207EA
:1048D000930708F4C6C0FF2051F000E220E249E14E
:1048E00053E260E170E080E390E00E9432160E94A3
:1048F0009B19009150021091510220915202309167
:104900005302601771078207930780F424E244E2A0
:104910006EE070E08EE290E00E940C1A20E240E22D
:1049200060E170E080E390E00E940C1A80915C02EC
:1049300090915D028130910509F42CC108F422C1E7
:104940008230910509F42AC1039709F42FC1E98146
:10495000FA818781882369F06281738160517109CE
:104960008081918100E220E249E952E240970E9471
:10497000321609811A81085F1F4F1A8309832D811E
:104980003E810217130719F792E0C92ED12C1A8223
:1049900019820E2C000CFF0849815A814E155F05C3
:1049A0000CF00AC141E952E208E028E062E070E060
:1049B000C6010E94321689819A8101969A83898361
:1049C0009AE0C90ED11CE981FA81339729F78DE26B
:1049D00090E0909300028093FF0104E010E01093B8
:1049E00002020093010282E991E00E946C1B609137
:1049F000010170E090E080E04AE00E941E1B88E523
:104A000090E0909300028093FF01109302020093C4
:104A1000010287E991E00E946C1B80911102909144
:104A200012020E947E1B80910101833008F49DCC0C
:104A30000E94971A882309F498CC00E120E149E606
:104A400052E26EE270E08CE690E00E9432168DCC6D
:104A5000F22EF0941F2D1170F12E2DCFFF24F39420
:104A60002ACF41E062E370E080E490E00E94D21936
:104A700041E06EE070E080E490E00E94D21941E0F5
:104A800060E270E082E590E00E94D21941E060E2CD
:104A900070E08EE290E00E94D21901E010E01C83E9
:104AA0000B83712C612C02E110E07CED472E552424
:104AB0005A94EFEE2E2E33243A943FEF631A730A82
:104AC0004B815C814E5F5F4F5C834B83240E351EB0
:104AD000430150E4850E911C41E0680180E2C80E5C
:104AE000D11CB601C4010E94D21920E4A22EB12C1F
:104AF000A618B70841E0B601C5010E94D21941E0ED
:104B000030E2C32ED12CC01AD10AB601C4010E94D2
:104B1000D21941E0B601C5010E94D219630190E2A9
:104B2000C90ED11C41E0B6015801E0E4AE0EB11C43
:104B3000C5010E94D21941E0B60150E4C52ED12C26
:104B4000C01AD10AC6010E94D21960E2862E912CA9
:104B50008618970841E0B401C5010E94D21941E0CE
:104B6000B401C6010E94D219601671060CF0B3CED2
:104B700037FCA3CF0150110922E0420E511C240C36
:104B8000351C9BCF40E260E170E080E390E00E9442
:104B9000FB16DDCE40E260E370E0F7CF40E260E17B
:104BA00070E080E390E00E94F019D1CE40E260E135
:104BB00070E080E590E0F7CF49E852E2F5CE8091D1
:104BC000010100E420E849E65EE1813039F08230FD
:104BD00009F05DC000E420E849E65AE170E060E0D9
:104BE00090E080E00E9432160E949B19009107021B
:104BF000109108022091090230910A02601B710B8A
:104C0000820B930B6D3D75408105910508F4ADCB8A
:104C1000809101018F5F89838093010183E08093FC
:104C2000020110925D0210925C0210921702109223
:104C30001F021092270210922F0210923702109238
:104C40003F02109247020E949B1960930B027093DF
:104C50000C0280930D0290930E020E949B196093A8
:104C600048027093490280934A0290934B02F98163
:104C7000EF2FF0E0EE0FFF1FEB5EFE4F8081918182
:104C8000909304018093030182E090E054CB8CE187
:104C900090E0909300028093FF012EE030E030938B
:104CA0000202209301028CE991E00E946C1B82E2D7
:104CB00090E0909300028093FF018EE190E090934A
:104CC00002028093010286EA91E00E946C1B6091CF
:104CD000010170E06F5F7F4F072E000C880B990B6E
:104CE0004AE00E941E1B4EE050E0509300024093A9
:104CF000FF018EE290E090930202809301028BEA22
:104D000091E00E946C1B70CF80910F029091100275
:104D100049E652E18A30910558F049E65EE08F306D
:104D2000910530F049E656E0449710F449E65AE020
:104D300000E420E870E060E090E080E00E9432163D
:104D400082E090E0909300028093FF0188E390E07E
:104D5000909302028093010288EB91E00E946C1B09
:104D600080910F02909110020E947E1B88E00E94A9
:104D7000B919882309F4F9CA85E090E0DCCA00E497
:104D800020E849E656E170E060E090E080E00E94B3
:104D9000321602E010E0109300020093FF0186E358
:104DA00090E0909302028093010282EC91E00E94D5
:104DB0006C1B80911102909112020E947E1B88E070
:104DC0000E94B919882309F4C5CA0E940D1B0E94CC
:104DD000B61A10935F0200935E02BCCA82E290E0B2
:104DE000909300028093FF0184E090E09093020290
:104DF0008093010289EC91E00E946C1B82E090E0BC
:104E0000909300028093FF0182E190E09093020270
:104E10008093010282ED91E00E946C1B80910F0251
:104E2000909110028A30910508F44DC08F309105A1
:104E300008F44CC08431910508F44BC04A9708F43B
:104E40004BC085E791E00E946C1B22E030E030937C
:104E500000022093FF018EE190E090930202809384
:104E6000010288EB91E00E946C1B80910F029091EF
:104E700010020E947E1B42E050E0509300024093DB
:104E8000FF018AE290E0909302028093010289ED93
:104E900091E00E946C1B80911102909112020E947D
:104EA0007E1B82E090E0909300028093FF0188E3F4
:104EB00090E0909302028093010281EE91E00E94C3
:104EC0006C1B88E048CA86E491E0BDCF8EE491E097
:104ED000BACF88E691E0B7CF8BE591E0B4CF8F925F
:104EE0009F92AF92BF92CF92DF92EF92FF92CF93B9
:104EF000DF93EC01688179818A819B81611571055D
:104F00008105910521F464E279ED8BE597E02DE1CF
:104F100033EF41E050E00E94292849015A019B01EA
:104F2000AC01A7EAB1E40E9448286B017C01ACEE19
:104F3000B4EFA50194010E945628C60ED71EE81EA4
:104F4000F91EF7FE06C081E0C81AD108E10880E822
:104F5000F80AC882D982EA82FB82C701B6019F772C
:104F6000DF91CF91FF90EF90DF90CF90BF90AF9007
:104F70009F908F9008958F929F92AF92BF92CF9201
:104F8000DF92EF92FF926091110170911201809176
:104F9000130190911401611571058105910521F4AA
:104FA00064E279ED8BE597E02DE133EF41E050E0ED
:104FB0000E94292849015A019B01AC01A7EAB1E4EA
:104FC0000E9448286B017C01ACEEB4EFA50194016E
:104FD0000E945628C60ED71EE81EF91EF7FE06C010
:104FE00081E0C81AD108E10880E8F80AC0921101EE
:104FF000D0921201E0921301F0921401C701B601A0
:105000009F77FF90EF90DF90CF90BF90AF909F90F1
:105010008F90089560931101709312018093130192
:10502000909314010895F999FECF92BD81BDF89A2D
:10503000992780B50895262FF999FECF1FBA92BD02
:1050400081BD20BD0FB6F894FA9AF99A0FBE019669
:105050000895052E97FB1EF400940E94402857FDEA
:1050600007D00E945B2807FC03D04EF40C94402824
:1050700050954095309521953F4F4F4F5F4F089584
:1050800090958095709561957F4F8F4F9F4F0895B4
:105090000E947D28A59F900DB49F900DA49F800D28
:1050A000911D11240895B7FF0C9448280E944828A8
:1050B000821B930B0895A1E21A2EAA1BBB1BFD01B4
:1050C0000DC0AA1FBB1FEE1FFF1FA217B307E407E7
:1050D000F50720F0A21BB30BE40BF50B661F771F3F
:1050E000881F991F1A9469F760957095809590951F
:1050F0009B01AC01BD01CF010895A29FB001B39FF8
:10510000C001A39F700D811D1124911DB29F700DD0
:10511000811D1124911D0895EE0FFF1F0590F4913C
:08512000E02D0994F894FFCF83
:105128001001030807FFFFFFFF00E1000000000077
:10513800000100000000000807B004BC02000102E2
:105148000300C18081000000000000007E171619CE
:105158009F179417E517A317C11700000000341A0A
:1051680091181B1B1A1B545241494E4545004A557C
:105178004E494F5220434F4445520053454E494FE4
:105188005220434F444552004D4944444C45204326
:105198004F44455200415243484954454354004105
:1051A8003A535441525400423A434F4E54524F4C92
:1051B80053004C564C3A005054533A004C4556450F
:1051C8004C20555021004C564C2000485020726508
:1051D80073746F7265642100426C6F636B65643A27
:1051E800200053434F52453A00564943544F5259B1
:1051F800210052616E6B3A200053636F72653A204A
:10520800005072657373204120666F72206D656E61
:0252180075001F
:00000001FF
